{
  "contractName": "SimpleStorage",
  "abi": [
    {
      "constant": false,
      "inputs": [
        {
          "internalType": "uint256",
          "name": "v",
          "type": "uint256"
        }
      ],
      "name": "setValue",
      "outputs": [],
      "payable": false,
      "stateMutability": "nonpayable",
      "type": "function"
    },
    {
      "constant": true,
      "inputs": [],
      "name": "isPrime",
      "outputs": [
        {
          "internalType": "bool",
          "name": "",
          "type": "bool"
        }
      ],
      "payable": false,
      "stateMutability": "view",
      "type": "function"
    }
  ],
  "bytecode": "0x6080604052600a60005534801561001557600080fd5b5061010c806100256000396000f3fe6080604052348015600f57600080fd5b506004361060325760003560e01c8063552410771460375780635d8d4505146062575b600080fd5b606060048036036020811015604b57600080fd5b81019080803590602001909291905050506082565b005b6068608c565b604051808215151515815260200191505060405180910390f35b8060008190555050565b600080600090506000600290505b60026000548160a557fe5b04811160ce576000816000548160b757fe5b06141560c257600191505b8080600101915050609a565b5080159150509056fea265627a7a72315820a966abfdb47c6bdd3b168992a626bc0fa4790b94e68ae623bd49413b7f6ce76064736f6c63430005100032",
  "source": "pragma solidity >=0.4.21 <0.7.0;\n\ncontract SimpleStorage {\n  uint a=10;\n\n  function setValue(uint v)public {\n      a = v;\n  }\n\n  function isPrime()public view returns(bool){\n      bool prime = false;\n      for(uint i = 2; i<=(a/2); i++){\n          if(a % i == 0){\n              prime = true;\n          }\n      }\n      return !prime;\n  }\n}\n",
  "sourcePath": "/home/yashwant/Blockchain/Radical/prime/contracts/SimpleStorage.sol",
  "compiler": {
    "name": "solc",
    "version": "0.5.16+commit.9c3226ce.Emscripten.clang"
  },
  "schemaVersion": "3.0.23",
  "updatedAt": "2020-03-15T04:48:16.718Z",
  "networkType": "ethereum",
  "devdoc": {
    "methods": {}
  },
  "userdoc": {
    "methods": {}
  }
}